{
  "_format": "hh-sol-artifact-1",
  "contractName": "FeedBack",
  "sourceName": "contracts/FeedBack.sol",
  "abi": [
    {
      "inputs": [],
      "stateMutability": "nonpayable",
      "type": "constructor"
    },
    {
      "inputs": [],
      "name": "getFeedbacks",
      "outputs": [
        {
          "components": [
            {
              "internalType": "address",
              "name": "sender",
              "type": "address"
            },
            {
              "internalType": "string",
              "name": "message",
              "type": "string"
            },
            {
              "internalType": "uint256",
              "name": "timestamp",
              "type": "uint256"
            }
          ],
          "internalType": "struct FeedBack.FeedbackMessage[]",
          "name": "",
          "type": "tuple[]"
        }
      ],
      "stateMutability": "view",
      "type": "function"
    },
    {
      "inputs": [
        {
          "internalType": "string",
          "name": "message",
          "type": "string"
        }
      ],
      "name": "submitFeedback",
      "outputs": [],
      "stateMutability": "nonpayable",
      "type": "function"
    }
  ],
  "bytecode": "0x608060405234801561001057600080fd5b506100596040518060400160405280601881526020017f54686973206973206120736d61727420636f6e7472616374000000000000000081525061005e60201b6102d31760201c565b6101d8565b6100fa8160405160240161007291906101b6565b6040516020818303038152906040527f41304fac000000000000000000000000000000000000000000000000000000007bffffffffffffffffffffffffffffffffffffffffffffffffffffffff19166020820180517bffffffffffffffffffffffffffffffffffffffffffffffffffffffff83818316178352505050506100fd60201b60201c565b50565b60008151905060006a636f6e736f6c652e6c6f679050602083016000808483855afa5050505050565b600081519050919050565b600082825260208201905092915050565b60005b83811015610160578082015181840152602081019050610145565b60008484015250505050565b6000601f19601f8301169050919050565b600061018882610126565b6101928185610131565b93506101a2818560208601610142565b6101ab8161016c565b840191505092915050565b600060208201905081810360008301526101d0818461017d565b905092915050565b610a1e806101e76000396000f3fe608060405234801561001057600080fd5b50600436106100365760003560e01c80633a1d56991461003b578063e341a62314610059575b600080fd5b610043610075565b6040516100509190610591565b60405180910390f35b610073600480360381019061006e9190610622565b6101c6565b005b60606000805480602002602001604051908101604052809291908181526020016000905b828210156101bd57838290600052602060002090600302016040518060600160405290816000820160009054906101000a900473ffffffffffffffffffffffffffffffffffffffff1673ffffffffffffffffffffffffffffffffffffffff1673ffffffffffffffffffffffffffffffffffffffff1681526020016001820180546101229061069e565b80601f016020809104026020016040519081016040528092919081815260200182805461014e9061069e565b801561019b5780601f106101705761010080835404028352916020019161019b565b820191906000526020600020905b81548152906001019060200180831161017e57829003601f168201915b5050505050815260200160028201548152505081526020019060010190610099565b50505050905090565b600060405180606001604052803373ffffffffffffffffffffffffffffffffffffffff16815260200184848080601f016020809104026020016040519081016040528093929190818152602001838380828437600081840152601f19601f82011690508083019250505050505050815260200142815250908060018154018082558091505060019003906000526020600020906003020160009091909190915060008201518160000160006101000a81548173ffffffffffffffffffffffffffffffffffffffff021916908373ffffffffffffffffffffffffffffffffffffffff16021790555060208201518160010190816102c291906108aa565b506040820151816002015550505050565b610369816040516024016102e791906109c6565b6040516020818303038152906040527f41304fac000000000000000000000000000000000000000000000000000000007bffffffffffffffffffffffffffffffffffffffffffffffffffffffff19166020820180517bffffffffffffffffffffffffffffffffffffffffffffffffffffffff838183161783525050505061036c565b50565b60008151905060006a636f6e736f6c652e6c6f679050602083016000808483855afa5050505050565b600081519050919050565b600082825260208201905092915050565b6000819050602082019050919050565b600073ffffffffffffffffffffffffffffffffffffffff82169050919050565b60006103ec826103c1565b9050919050565b6103fc816103e1565b82525050565b600081519050919050565b600082825260208201905092915050565b60005b8381101561043c578082015181840152602081019050610421565b60008484015250505050565b6000601f19601f8301169050919050565b600061046482610402565b61046e818561040d565b935061047e81856020860161041e565b61048781610448565b840191505092915050565b6000819050919050565b6104a581610492565b82525050565b60006060830160008301516104c360008601826103f3565b50602083015184820360208601526104db8282610459565b91505060408301516104f0604086018261049c565b508091505092915050565b600061050783836104ab565b905092915050565b6000602082019050919050565b600061052782610395565b61053181856103a0565b935083602082028501610543856103b1565b8060005b8581101561057f578484038952815161056085826104fb565b945061056b8361050f565b925060208a01995050600181019050610547565b50829750879550505050505092915050565b600060208201905081810360008301526105ab818461051c565b905092915050565b600080fd5b600080fd5b600080fd5b600080fd5b600080fd5b60008083601f8401126105e2576105e16105bd565b5b8235905067ffffffffffffffff8111156105ff576105fe6105c2565b5b60208301915083600182028301111561061b5761061a6105c7565b5b9250929050565b60008060208385031215610639576106386105b3565b5b600083013567ffffffffffffffff811115610657576106566105b8565b5b610663858286016105cc565b92509250509250929050565b7f4e487b7100000000000000000000000000000000000000000000000000000000600052602260045260246000fd5b600060028204905060018216806106b657607f821691505b6020821081036106c9576106c861066f565b5b50919050565b7f4e487b7100000000000000000000000000000000000000000000000000000000600052604160045260246000fd5b60008190508160005260206000209050919050565b60006020601f8301049050919050565b600082821b905092915050565b6000600883026107607fffffffffffffffffffffffffffffffffffffffffffffffffffffffffffffffff82610723565b61076a8683610723565b95508019841693508086168417925050509392505050565b6000819050919050565b60006107a76107a261079d84610492565b610782565b610492565b9050919050565b6000819050919050565b6107c18361078c565b6107d56107cd826107ae565b848454610730565b825550505050565b600090565b6107ea6107dd565b6107f58184846107b8565b505050565b5b818110156108195761080e6000826107e2565b6001810190506107fb565b5050565b601f82111561085e5761082f816106fe565b61083884610713565b81016020851015610847578190505b61085b61085385610713565b8301826107fa565b50505b505050565b600082821c905092915050565b600061088160001984600802610863565b1980831691505092915050565b600061089a8383610870565b9150826002028217905092915050565b6108b382610402565b67ffffffffffffffff8111156108cc576108cb6106cf565b5b6108d6825461069e565b6108e182828561081d565b600060209050601f8311600181146109145760008415610902578287015190505b61090c858261088e565b865550610974565b601f198416610922866106fe565b60005b8281101561094a57848901518255600182019150602085019450602081019050610925565b868310156109675784890151610963601f891682610870565b8355505b6001600288020188555050505b505050505050565b600082825260208201905092915050565b600061099882610402565b6109a2818561097c565b93506109b281856020860161041e565b6109bb81610448565b840191505092915050565b600060208201905081810360008301526109e0818461098d565b90509291505056fea2646970667358221220dd6ce2148c6c8f4b9ef98157708b2802f64c89a6a62ab2202bcd12ec465cad8364736f6c63430008110033",
  "linkReferences": {},
  "deployedLinkReferences": {}
}